{
  "contractName": "MyToken",
  "abi": [
    {
      "inputs": [],
      "stateMutability": "nonpayable",
      "type": "constructor"
    },
    {
      "anonymous": false,
      "inputs": [
        {
          "indexed": true,
          "internalType": "address",
          "name": "owner",
          "type": "address"
        },
        {
          "indexed": true,
          "internalType": "address",
          "name": "approved",
          "type": "address"
        },
        {
          "indexed": true,
          "internalType": "uint256",
          "name": "tokenId",
          "type": "uint256"
        }
      ],
      "name": "Approval",
      "type": "event"
    },
    {
      "anonymous": false,
      "inputs": [
        {
          "indexed": true,
          "internalType": "address",
          "name": "owner",
          "type": "address"
        },
        {
          "indexed": true,
          "internalType": "address",
          "name": "operator",
          "type": "address"
        },
        {
          "indexed": false,
          "internalType": "bool",
          "name": "approved",
          "type": "bool"
        }
      ],
      "name": "ApprovalForAll",
      "type": "event"
    },
    {
      "anonymous": false,
      "inputs": [
        {
          "indexed": true,
          "internalType": "address",
          "name": "from",
          "type": "address"
        },
        {
          "indexed": true,
          "internalType": "address",
          "name": "to",
          "type": "address"
        },
        {
          "indexed": true,
          "internalType": "uint256",
          "name": "tokenId",
          "type": "uint256"
        }
      ],
      "name": "Transfer",
      "type": "event"
    },
    {
      "anonymous": false,
      "inputs": [
        {
          "indexed": false,
          "internalType": "address",
          "name": "addOfSender",
          "type": "address"
        },
        {
          "indexed": false,
          "internalType": "uint256",
          "name": "id",
          "type": "uint256"
        }
      ],
      "name": "mintevent",
      "type": "event"
    },
    {
      "inputs": [
        {
          "internalType": "address",
          "name": "to",
          "type": "address"
        },
        {
          "internalType": "uint256",
          "name": "tokenId",
          "type": "uint256"
        }
      ],
      "name": "approve",
      "outputs": [],
      "stateMutability": "nonpayable",
      "type": "function"
    },
    {
      "inputs": [
        {
          "internalType": "address",
          "name": "owner",
          "type": "address"
        }
      ],
      "name": "balanceOf",
      "outputs": [
        {
          "internalType": "uint256",
          "name": "",
          "type": "uint256"
        }
      ],
      "stateMutability": "view",
      "type": "function"
    },
    {
      "inputs": [],
      "name": "baseTokenURI",
      "outputs": [
        {
          "internalType": "string",
          "name": "",
          "type": "string"
        }
      ],
      "stateMutability": "view",
      "type": "function"
    },
    {
      "inputs": [
        {
          "internalType": "uint256",
          "name": "tokenId",
          "type": "uint256"
        }
      ],
      "name": "getApproved",
      "outputs": [
        {
          "internalType": "address",
          "name": "",
          "type": "address"
        }
      ],
      "stateMutability": "view",
      "type": "function"
    },
    {
      "inputs": [
        {
          "internalType": "address",
          "name": "owner",
          "type": "address"
        },
        {
          "internalType": "address",
          "name": "operator",
          "type": "address"
        }
      ],
      "name": "isApprovedForAll",
      "outputs": [
        {
          "internalType": "bool",
          "name": "",
          "type": "bool"
        }
      ],
      "stateMutability": "view",
      "type": "function"
    },
    {
      "inputs": [],
      "name": "name",
      "outputs": [
        {
          "internalType": "string",
          "name": "",
          "type": "string"
        }
      ],
      "stateMutability": "view",
      "type": "function"
    },
    {
      "inputs": [
        {
          "internalType": "uint256",
          "name": "tokenId",
          "type": "uint256"
        }
      ],
      "name": "ownerOf",
      "outputs": [
        {
          "internalType": "address",
          "name": "",
          "type": "address"
        }
      ],
      "stateMutability": "view",
      "type": "function"
    },
    {
      "inputs": [
        {
          "internalType": "address",
          "name": "from",
          "type": "address"
        },
        {
          "internalType": "address",
          "name": "to",
          "type": "address"
        },
        {
          "internalType": "uint256",
          "name": "tokenId",
          "type": "uint256"
        }
      ],
      "name": "safeTransferFrom",
      "outputs": [],
      "stateMutability": "nonpayable",
      "type": "function"
    },
    {
      "inputs": [
        {
          "internalType": "address",
          "name": "from",
          "type": "address"
        },
        {
          "internalType": "address",
          "name": "to",
          "type": "address"
        },
        {
          "internalType": "uint256",
          "name": "tokenId",
          "type": "uint256"
        },
        {
          "internalType": "bytes",
          "name": "data",
          "type": "bytes"
        }
      ],
      "name": "safeTransferFrom",
      "outputs": [],
      "stateMutability": "nonpayable",
      "type": "function"
    },
    {
      "inputs": [
        {
          "internalType": "address",
          "name": "operator",
          "type": "address"
        },
        {
          "internalType": "bool",
          "name": "approved",
          "type": "bool"
        }
      ],
      "name": "setApprovalForAll",
      "outputs": [],
      "stateMutability": "nonpayable",
      "type": "function"
    },
    {
      "inputs": [],
      "name": "symbol",
      "outputs": [
        {
          "internalType": "string",
          "name": "",
          "type": "string"
        }
      ],
      "stateMutability": "view",
      "type": "function"
    },
    {
      "inputs": [
        {
          "internalType": "uint256",
          "name": "index",
          "type": "uint256"
        }
      ],
      "name": "tokenByIndex",
      "outputs": [
        {
          "internalType": "uint256",
          "name": "",
          "type": "uint256"
        }
      ],
      "stateMutability": "view",
      "type": "function"
    },
    {
      "inputs": [
        {
          "internalType": "address",
          "name": "owner",
          "type": "address"
        },
        {
          "internalType": "uint256",
          "name": "index",
          "type": "uint256"
        }
      ],
      "name": "tokenOfOwnerByIndex",
      "outputs": [
        {
          "internalType": "uint256",
          "name": "",
          "type": "uint256"
        }
      ],
      "stateMutability": "view",
      "type": "function"
    },
    {
      "inputs": [
        {
          "internalType": "uint256",
          "name": "tokenId",
          "type": "uint256"
        }
      ],
      "name": "tokenURI",
      "outputs": [
        {
          "internalType": "string",
          "name": "",
          "type": "string"
        }
      ],
      "stateMutability": "view",
      "type": "function"
    },
    {
      "inputs": [],
      "name": "totalSupply",
      "outputs": [
        {
          "internalType": "uint256",
          "name": "",
          "type": "uint256"
        }
      ],
      "stateMutability": "view",
      "type": "function"
    },
    {
      "inputs": [
        {
          "internalType": "address",
          "name": "from",
          "type": "address"
        },
        {
          "internalType": "address",
          "name": "to",
          "type": "address"
        },
        {
          "internalType": "uint256",
          "name": "tokenId",
          "type": "uint256"
        }
      ],
      "name": "transferFrom",
      "outputs": [],
      "stateMutability": "nonpayable",
      "type": "function"
    },
    {
      "inputs": [
        {
          "internalType": "bytes4",
          "name": "interfaceId",
          "type": "bytes4"
        }
      ],
      "name": "supportsInterface",
      "outputs": [
        {
          "internalType": "bool",
          "name": "",
          "type": "bool"
        }
      ],
      "stateMutability": "view",
      "type": "function"
    },
    {
      "inputs": [
        {
          "internalType": "address",
          "name": "recipient",
          "type": "address"
        }
      ],
      "name": "mintTo",
      "outputs": [
        {
          "internalType": "uint256",
          "name": "",
          "type": "uint256"
        }
      ],
      "stateMutability": "nonpayable",
      "type": "function"
    },
    {
      "inputs": [],
      "name": "get",
      "outputs": [
        {
          "internalType": "string",
          "name": "",
          "type": "string"
        }
      ],
      "stateMutability": "view",
      "type": "function"
    },
    {
      "inputs": [
        {
          "internalType": "string",
          "name": "_baseTokenURI",
          "type": "string"
        }
      ],
      "name": "setBaseTokenURI",
      "outputs": [],
      "stateMutability": "nonpayable",
      "type": "function"
    }
  ],
  "bytecode": "0x60806040523480156200001157600080fd5b506040518060400160405280600781526020017f4d79546f6b656e000000000000000000000000000000000000000000000000008152506040518060400160405280600381526020017f4d544b000000000000000000000000000000000000000000000000000000000081525081600090816200008f919062000324565b508060019081620000a1919062000324565b5050506200040b565b600081519050919050565b7f4e487b7100000000000000000000000000000000000000000000000000000000600052604160045260246000fd5b7f4e487b7100000000000000000000000000000000000000000000000000000000600052602260045260246000fd5b600060028204905060018216806200012c57607f821691505b602082108103620001425762000141620000e4565b5b50919050565b60008190508160005260206000209050919050565b60006020601f8301049050919050565b600082821b905092915050565b600060088302620001ac7fffffffffffffffffffffffffffffffffffffffffffffffffffffffffffffffff826200016d565b620001b886836200016d565b95508019841693508086168417925050509392505050565b6000819050919050565b6000819050919050565b600062000205620001ff620001f984620001d0565b620001da565b620001d0565b9050919050565b6000819050919050565b6200022183620001e4565b6200023962000230826200020c565b8484546200017a565b825550505050565b600090565b6200025062000241565b6200025d81848462000216565b505050565b5b8181101562000285576200027960008262000246565b60018101905062000263565b5050565b601f821115620002d4576200029e8162000148565b620002a9846200015d565b81016020851015620002b9578190505b620002d1620002c8856200015d565b83018262000262565b50505b505050565b600082821c905092915050565b6000620002f960001984600802620002d9565b1980831691505092915050565b6000620003148383620002e6565b9150826002028217905092915050565b6200032f82620000aa565b67ffffffffffffffff8111156200034b576200034a620000b5565b5b62000357825462000113565b6200036482828562000289565b600060209050601f8311600181146200039c576000841562000387578287015190505b62000393858262000306565b86555062000403565b601f198416620003ac8662000148565b60005b82811015620003d657848901518255600182019150602085019450602081019050620003af565b86831015620003f65784890151620003f2601f891682620002e6565b8355505b6001600288020188555050505b505050505050565b6133d0806200041b6000396000f3fe608060405234801561001057600080fd5b506004361061012c5760003560e01c80636352211e116100ad578063a22cb46511610071578063a22cb46514610369578063b88d4fde14610385578063c87b56dd146103a1578063d547cfb7146103d1578063e985e9c5146103ef5761012c565b80636352211e1461029d5780636d4ce63c146102cd57806370a08231146102eb578063755edd171461031b57806395d89b411461034b5761012c565b806323b872dd116100f457806323b872dd146101e95780632f745c591461020557806330176e131461023557806342842e0e146102515780634f6ccce71461026d5761012c565b806301ffc9a71461013157806306fdde0314610161578063081812fc1461017f578063095ea7b3146101af57806318160ddd146101cb575b600080fd5b61014b600480360381019061014691906120c4565b61041f565b604051610158919061210c565b60405180910390f35b610169610431565b60405161017691906121b7565b60405180910390f35b6101996004803603810190610194919061220f565b6104c3565b6040516101a6919061227d565b60405180910390f35b6101c960048036038101906101c491906122c4565b610509565b005b6101d3610620565b6040516101e09190612313565b60405180910390f35b61020360048036038101906101fe919061232e565b61062d565b005b61021f600480360381019061021a91906122c4565b61068d565b60405161022c9190612313565b60405180910390f35b61024f600480360381019061024a91906124b6565b610732565b005b61026b6004803603810190610266919061232e565b610745565b005b6102876004803603810190610282919061220f565b610765565b6040516102949190612313565b60405180910390f35b6102b760048036038101906102b2919061220f565b6107d6565b6040516102c4919061227d565b60405180910390f35b6102d561085c565b6040516102e291906121b7565b60405180910390f35b610305600480360381019061030091906124ff565b61086b565b6040516103129190612313565b60405180910390f35b610335600480360381019061033091906124ff565b610922565b6040516103429190612313565b60405180910390f35b610353610985565b60405161036091906121b7565b60405180910390f35b610383600480360381019061037e9190612558565b610a17565b005b61039f600480360381019061039a9190612639565b610a2d565b005b6103bb60048036038101906103b6919061220f565b610a8f565b6040516103c891906121b7565b60405180910390f35b6103d9610af7565b6040516103e691906121b7565b60405180910390f35b610409600480360381019061040491906126bc565b610b85565b604051610416919061210c565b60405180910390f35b600061042a82610c19565b9050919050565b6060600080546104409061272b565b80601f016020809104026020016040519081016040528092919081815260200182805461046c9061272b565b80156104b95780601f1061048e576101008083540402835291602001916104b9565b820191906000526020600020905b81548152906001019060200180831161049c57829003601f168201915b5050505050905090565b60006104ce82610c93565b6004600083815260200190815260200160002060009054906101000a900473ffffffffffffffffffffffffffffffffffffffff169050919050565b6000610514826107d6565b90508073ffffffffffffffffffffffffffffffffffffffff168373ffffffffffffffffffffffffffffffffffffffff1603610584576040517f08c379a000000000000000000000000000000000000000000000000000000000815260040161057b906127ce565b60405180910390fd5b8073ffffffffffffffffffffffffffffffffffffffff166105a3610cde565b73ffffffffffffffffffffffffffffffffffffffff1614806105d257506105d1816105cc610cde565b610b85565b5b610611576040517f08c379a000000000000000000000000000000000000000000000000000000000815260040161060890612860565b60405180910390fd5b61061b8383610ce6565b505050565b6000600880549050905090565b61063e610638610cde565b82610d9f565b61067d576040517f08c379a0000000000000000000000000000000000000000000000000000000008152600401610674906128f2565b60405180910390fd5b610688838383610e34565b505050565b60006106988361086b565b82106106d9576040517f08c379a00000000000000000000000000000000000000000000000000000000081526004016106d090612984565b60405180910390fd5b600660008473ffffffffffffffffffffffffffffffffffffffff1673ffffffffffffffffffffffffffffffffffffffff168152602001908152602001600020600083815260200190815260200160002054905092915050565b80600b90816107419190612b50565b5050565b61076083838360405180602001604052806000815250610a2d565b505050565b600061076f610620565b82106107b0576040517f08c379a00000000000000000000000000000000000000000000000000000000081526004016107a790612c94565b60405180910390fd5b600882815481106107c4576107c3612cb4565b5b90600052602060002001549050919050565b6000806107e28361112d565b9050600073ffffffffffffffffffffffffffffffffffffffff168173ffffffffffffffffffffffffffffffffffffffff1603610853576040517f08c379a000000000000000000000000000000000000000000000000000000000815260040161084a90612d2f565b60405180910390fd5b80915050919050565b606061086661116a565b905090565b60008073ffffffffffffffffffffffffffffffffffffffff168273ffffffffffffffffffffffffffffffffffffffff16036108db576040517f08c379a00000000000000000000000000000000000000000000000000000000081526004016108d290612dc1565b60405180910390fd5b600360008373ffffffffffffffffffffffffffffffffffffffff1673ffffffffffffffffffffffffffffffffffffffff168152602001908152602001600020549050919050565b600061092e600a6111fc565b600061093a600a611212565b90506109468382611220565b7ff26177e8beb5685e196f245a368b55447edb1db689c2ee31d11026345db158123382604051610977929190612de1565b60405180910390a150919050565b6060600180546109949061272b565b80601f01602080910402602001604051908101604052809291908181526020018280546109c09061272b565b8015610a0d5780601f106109e257610100808354040283529160200191610a0d565b820191906000526020600020905b8154815290600101906020018083116109f057829003601f168201915b5050505050905090565b610a29610a22610cde565b838361123e565b5050565b610a3e610a38610cde565b83610d9f565b610a7d576040517f08c379a0000000000000000000000000000000000000000000000000000000008152600401610a74906128f2565b60405180910390fd5b610a89848484846113aa565b50505050565b6060610a9a82610c93565b6000610aa461116a565b90506000815111610ac45760405180602001604052806000815250610aef565b80610ace84611406565b604051602001610adf929190612e46565b6040516020818303038152906040525b915050919050565b600b8054610b049061272b565b80601f0160208091040260200160405190810160405280929190818152602001828054610b309061272b565b8015610b7d5780601f10610b5257610100808354040283529160200191610b7d565b820191906000526020600020905b815481529060010190602001808311610b6057829003601f168201915b505050505081565b6000600560008473ffffffffffffffffffffffffffffffffffffffff1673ffffffffffffffffffffffffffffffffffffffff16815260200190815260200160002060008373ffffffffffffffffffffffffffffffffffffffff1673ffffffffffffffffffffffffffffffffffffffff16815260200190815260200160002060009054906101000a900460ff16905092915050565b60007f780e9d63000000000000000000000000000000000000000000000000000000007bffffffffffffffffffffffffffffffffffffffffffffffffffffffff1916827bffffffffffffffffffffffffffffffffffffffffffffffffffffffff19161480610c8c5750610c8b826114d4565b5b9050919050565b610c9c816115b6565b610cdb576040517f08c379a0000000000000000000000000000000000000000000000000000000008152600401610cd290612d2f565b60405180910390fd5b50565b600033905090565b816004600083815260200190815260200160002060006101000a81548173ffffffffffffffffffffffffffffffffffffffff021916908373ffffffffffffffffffffffffffffffffffffffff160217905550808273ffffffffffffffffffffffffffffffffffffffff16610d59836107d6565b73ffffffffffffffffffffffffffffffffffffffff167f8c5be1e5ebec7d5bd14f71427d1e84f3dd0314c0f7b2291e5b200ac8c7c3b92560405160405180910390a45050565b600080610dab836107d6565b90508073ffffffffffffffffffffffffffffffffffffffff168473ffffffffffffffffffffffffffffffffffffffff161480610ded5750610dec8185610b85565b5b80610e2b57508373ffffffffffffffffffffffffffffffffffffffff16610e13846104c3565b73ffffffffffffffffffffffffffffffffffffffff16145b91505092915050565b8273ffffffffffffffffffffffffffffffffffffffff16610e54826107d6565b73ffffffffffffffffffffffffffffffffffffffff1614610eaa576040517f08c379a0000000000000000000000000000000000000000000000000000000008152600401610ea190612edc565b60405180910390fd5b600073ffffffffffffffffffffffffffffffffffffffff168273ffffffffffffffffffffffffffffffffffffffff1603610f19576040517f08c379a0000000000000000000000000000000000000000000000000000000008152600401610f1090612f6e565b60405180910390fd5b610f2683838360016115f7565b8273ffffffffffffffffffffffffffffffffffffffff16610f46826107d6565b73ffffffffffffffffffffffffffffffffffffffff1614610f9c576040517f08c379a0000000000000000000000000000000000000000000000000000000008152600401610f9390612edc565b60405180910390fd5b6004600082815260200190815260200160002060006101000a81549073ffffffffffffffffffffffffffffffffffffffff02191690556001600360008573ffffffffffffffffffffffffffffffffffffffff1673ffffffffffffffffffffffffffffffffffffffff168152602001908152602001600020600082825403925050819055506001600360008473ffffffffffffffffffffffffffffffffffffffff1673ffffffffffffffffffffffffffffffffffffffff16815260200190815260200160002060008282540192505081905550816002600083815260200190815260200160002060006101000a81548173ffffffffffffffffffffffffffffffffffffffff021916908373ffffffffffffffffffffffffffffffffffffffff160217905550808273ffffffffffffffffffffffffffffffffffffffff168473ffffffffffffffffffffffffffffffffffffffff167fddf252ad1be2c89b69c2b068fc378daa952ba7f163c4a11628f55a4df523b3ef60405160405180910390a46111288383836001611609565b505050565b60006002600083815260200190815260200160002060009054906101000a900473ffffffffffffffffffffffffffffffffffffffff169050919050565b6060600b80546111799061272b565b80601f01602080910402602001604051908101604052809291908181526020018280546111a59061272b565b80156111f25780601f106111c7576101008083540402835291602001916111f2565b820191906000526020600020905b8154815290600101906020018083116111d557829003601f168201915b5050505050905090565b6001816000016000828254019250508190555050565b600081600001549050919050565b61123a82826040518060200160405280600081525061160f565b5050565b8173ffffffffffffffffffffffffffffffffffffffff168373ffffffffffffffffffffffffffffffffffffffff16036112ac576040517f08c379a00000000000000000000000000000000000000000000000000000000081526004016112a390612fda565b60405180910390fd5b80600560008573ffffffffffffffffffffffffffffffffffffffff1673ffffffffffffffffffffffffffffffffffffffff16815260200190815260200160002060008473ffffffffffffffffffffffffffffffffffffffff1673ffffffffffffffffffffffffffffffffffffffff16815260200190815260200160002060006101000a81548160ff0219169083151502179055508173ffffffffffffffffffffffffffffffffffffffff168373ffffffffffffffffffffffffffffffffffffffff167f17307eab39ab6107e8899845ad3d59bd9653f200f220920489ca2b5937696c318360405161139d919061210c565b60405180910390a3505050565b6113b5848484610e34565b6113c18484848461166a565b611400576040517f08c379a00000000000000000000000000000000000000000000000000000000081526004016113f79061306c565b60405180910390fd5b50505050565b606060006001611415846117f1565b01905060008167ffffffffffffffff8111156114345761143361238b565b5b6040519080825280601f01601f1916602001820160405280156114665781602001600182028036833780820191505090505b509050600082602001820190505b6001156114c9578080600190039150507f3031323334353637383961626364656600000000000000000000000000000000600a86061a8153600a85816114bd576114bc61308c565b5b04945060008503611474575b819350505050919050565b60007f80ac58cd000000000000000000000000000000000000000000000000000000007bffffffffffffffffffffffffffffffffffffffffffffffffffffffff1916827bffffffffffffffffffffffffffffffffffffffffffffffffffffffff1916148061159f57507f5b5e139f000000000000000000000000000000000000000000000000000000007bffffffffffffffffffffffffffffffffffffffffffffffffffffffff1916827bffffffffffffffffffffffffffffffffffffffffffffffffffffffff1916145b806115af57506115ae82611944565b5b9050919050565b60008073ffffffffffffffffffffffffffffffffffffffff166115d88361112d565b73ffffffffffffffffffffffffffffffffffffffff1614159050919050565b611603848484846119ae565b50505050565b50505050565b6116198383611b0c565b611626600084848461166a565b611665576040517f08c379a000000000000000000000000000000000000000000000000000000000815260040161165c9061306c565b60405180910390fd5b505050565b600061168b8473ffffffffffffffffffffffffffffffffffffffff16611d29565b156117e4578373ffffffffffffffffffffffffffffffffffffffff1663150b7a026116b4610cde565b8786866040518563ffffffff1660e01b81526004016116d69493929190613110565b6020604051808303816000875af192505050801561171257506040513d601f19601f8201168201806040525081019061170f9190613171565b60015b611794573d8060008114611742576040519150601f19603f3d011682016040523d82523d6000602084013e611747565b606091505b50600081510361178c576040517f08c379a00000000000000000000000000000000000000000000000000000000081526004016117839061306c565b60405180910390fd5b805181602001fd5b63150b7a0260e01b7bffffffffffffffffffffffffffffffffffffffffffffffffffffffff1916817bffffffffffffffffffffffffffffffffffffffffffffffffffffffff1916149150506117e9565b600190505b949350505050565b600080600090507a184f03e93ff9f4daa797ed6e38ed64bf6a1f010000000000000000831061184f577a184f03e93ff9f4daa797ed6e38ed64bf6a1f01000000000000000083816118455761184461308c565b5b0492506040810190505b6d04ee2d6d415b85acef8100000000831061188c576d04ee2d6d415b85acef810000000083816118825761188161308c565b5b0492506020810190505b662386f26fc1000083106118bb57662386f26fc1000083816118b1576118b061308c565b5b0492506010810190505b6305f5e10083106118e4576305f5e10083816118da576118d961308c565b5b0492506008810190505b61271083106119095761271083816118ff576118fe61308c565b5b0492506004810190505b6064831061192c57606483816119225761192161308c565b5b0492506002810190505b600a831061193b576001810190505b80915050919050565b60007f01ffc9a7000000000000000000000000000000000000000000000000000000007bffffffffffffffffffffffffffffffffffffffffffffffffffffffff1916827bffffffffffffffffffffffffffffffffffffffffffffffffffffffff1916149050919050565b6119ba84848484611d4c565b60018111156119fe576040517f08c379a00000000000000000000000000000000000000000000000000000000081526004016119f590613210565b60405180910390fd5b6000829050600073ffffffffffffffffffffffffffffffffffffffff168573ffffffffffffffffffffffffffffffffffffffff1603611a4557611a4081611d52565b611a84565b8373ffffffffffffffffffffffffffffffffffffffff168573ffffffffffffffffffffffffffffffffffffffff1614611a8357611a828582611d9b565b5b5b600073ffffffffffffffffffffffffffffffffffffffff168473ffffffffffffffffffffffffffffffffffffffff1603611ac657611ac181611f08565b611b05565b8473ffffffffffffffffffffffffffffffffffffffff168473ffffffffffffffffffffffffffffffffffffffff1614611b0457611b038482611fd9565b5b5b5050505050565b600073ffffffffffffffffffffffffffffffffffffffff168273ffffffffffffffffffffffffffffffffffffffff1603611b7b576040517f08c379a0000000000000000000000000000000000000000000000000000000008152600401611b729061327c565b60405180910390fd5b611b84816115b6565b15611bc4576040517f08c379a0000000000000000000000000000000000000000000000000000000008152600401611bbb906132e8565b60405180910390fd5b611bd26000838360016115f7565b611bdb816115b6565b15611c1b576040517f08c379a0000000000000000000000000000000000000000000000000000000008152600401611c12906132e8565b60405180910390fd5b6001600360008473ffffffffffffffffffffffffffffffffffffffff1673ffffffffffffffffffffffffffffffffffffffff16815260200190815260200160002060008282540192505081905550816002600083815260200190815260200160002060006101000a81548173ffffffffffffffffffffffffffffffffffffffff021916908373ffffffffffffffffffffffffffffffffffffffff160217905550808273ffffffffffffffffffffffffffffffffffffffff16600073ffffffffffffffffffffffffffffffffffffffff167fddf252ad1be2c89b69c2b068fc378daa952ba7f163c4a11628f55a4df523b3ef60405160405180910390a4611d25600083836001611609565b5050565b6000808273ffffffffffffffffffffffffffffffffffffffff163b119050919050565b50505050565b6008805490506009600083815260200190815260200160002081905550600881908060018154018082558091505060019003906000526020600020016000909190919091505550565b60006001611da88461086b565b611db29190613337565b9050600060076000848152602001908152602001600020549050818114611e97576000600660008673ffffffffffffffffffffffffffffffffffffffff1673ffffffffffffffffffffffffffffffffffffffff168152602001908152602001600020600084815260200190815260200160002054905080600660008773ffffffffffffffffffffffffffffffffffffffff1673ffffffffffffffffffffffffffffffffffffffff168152602001908152602001600020600084815260200190815260200160002081905550816007600083815260200190815260200160002081905550505b6007600084815260200190815260200160002060009055600660008573ffffffffffffffffffffffffffffffffffffffff1673ffffffffffffffffffffffffffffffffffffffff16815260200190815260200160002060008381526020019081526020016000206000905550505050565b60006001600880549050611f1c9190613337565b9050600060096000848152602001908152602001600020549050600060088381548110611f4c57611f4b612cb4565b5b906000526020600020015490508060088381548110611f6e57611f6d612cb4565b5b906000526020600020018190555081600960008381526020019081526020016000208190555060096000858152602001908152602001600020600090556008805480611fbd57611fbc61336b565b5b6001900381819060005260206000200160009055905550505050565b6000611fe48361086b565b905081600660008573ffffffffffffffffffffffffffffffffffffffff1673ffffffffffffffffffffffffffffffffffffffff168152602001908152602001600020600083815260200190815260200160002081905550806007600084815260200190815260200160002081905550505050565b6000604051905090565b600080fd5b600080fd5b60007fffffffff0000000000000000000000000000000000000000000000000000000082169050919050565b6120a18161206c565b81146120ac57600080fd5b50565b6000813590506120be81612098565b92915050565b6000602082840312156120da576120d9612062565b5b60006120e8848285016120af565b91505092915050565b60008115159050919050565b612106816120f1565b82525050565b600060208201905061212160008301846120fd565b92915050565b600081519050919050565b600082825260208201905092915050565b60005b83811015612161578082015181840152602081019050612146565b60008484015250505050565b6000601f19601f8301169050919050565b600061218982612127565b6121938185612132565b93506121a3818560208601612143565b6121ac8161216d565b840191505092915050565b600060208201905081810360008301526121d1818461217e565b905092915050565b6000819050919050565b6121ec816121d9565b81146121f757600080fd5b50565b600081359050612209816121e3565b92915050565b60006020828403121561222557612224612062565b5b6000612233848285016121fa565b91505092915050565b600073ffffffffffffffffffffffffffffffffffffffff82169050919050565b60006122678261223c565b9050919050565b6122778161225c565b82525050565b6000602082019050612292600083018461226e565b92915050565b6122a18161225c565b81146122ac57600080fd5b50565b6000813590506122be81612298565b92915050565b600080604083850312156122db576122da612062565b5b60006122e9858286016122af565b92505060206122fa858286016121fa565b9150509250929050565b61230d816121d9565b82525050565b60006020820190506123286000830184612304565b92915050565b60008060006060848603121561234757612346612062565b5b6000612355868287016122af565b9350506020612366868287016122af565b9250506040612377868287016121fa565b9150509250925092565b600080fd5b600080fd5b7f4e487b7100000000000000000000000000000000000000000000000000000000600052604160045260246000fd5b6123c38261216d565b810181811067ffffffffffffffff821117156123e2576123e161238b565b5b80604052505050565b60006123f5612058565b905061240182826123ba565b919050565b600067ffffffffffffffff8211156124215761242061238b565b5b61242a8261216d565b9050602081019050919050565b82818337600083830152505050565b600061245961245484612406565b6123eb565b90508281526020810184848401111561247557612474612386565b5b612480848285612437565b509392505050565b600082601f83011261249d5761249c612381565b5b81356124ad848260208601612446565b91505092915050565b6000602082840312156124cc576124cb612062565b5b600082013567ffffffffffffffff8111156124ea576124e9612067565b5b6124f684828501612488565b91505092915050565b60006020828403121561251557612514612062565b5b6000612523848285016122af565b91505092915050565b612535816120f1565b811461254057600080fd5b50565b6000813590506125528161252c565b92915050565b6000806040838503121561256f5761256e612062565b5b600061257d858286016122af565b925050602061258e85828601612543565b9150509250929050565b600067ffffffffffffffff8211156125b3576125b261238b565b5b6125bc8261216d565b9050602081019050919050565b60006125dc6125d784612598565b6123eb565b9050828152602081018484840111156125f8576125f7612386565b5b612603848285612437565b509392505050565b600082601f8301126126205761261f612381565b5b81356126308482602086016125c9565b91505092915050565b6000806000806080858703121561265357612652612062565b5b6000612661878288016122af565b9450506020612672878288016122af565b9350506040612683878288016121fa565b925050606085013567ffffffffffffffff8111156126a4576126a3612067565b5b6126b08782880161260b565b91505092959194509250565b600080604083850312156126d3576126d2612062565b5b60006126e1858286016122af565b92505060206126f2858286016122af565b9150509250929050565b7f4e487b7100000000000000000000000000000000000000000000000000000000600052602260045260246000fd5b6000600282049050600182168061274357607f821691505b602082108103612756576127556126fc565b5b50919050565b7f4552433732313a20617070726f76616c20746f2063757272656e74206f776e6560008201527f7200000000000000000000000000000000000000000000000000000000000000602082015250565b60006127b8602183612132565b91506127c38261275c565b604082019050919050565b600060208201905081810360008301526127e7816127ab565b9050919050565b7f4552433732313a20617070726f76652063616c6c6572206973206e6f7420746f60008201527f6b656e206f776e6572206f7220617070726f76656420666f7220616c6c000000602082015250565b600061284a603d83612132565b9150612855826127ee565b604082019050919050565b600060208201905081810360008301526128798161283d565b9050919050565b7f4552433732313a2063616c6c6572206973206e6f7420746f6b656e206f776e6560008201527f72206f7220617070726f76656400000000000000000000000000000000000000602082015250565b60006128dc602d83612132565b91506128e782612880565b604082019050919050565b6000602082019050818103600083015261290b816128cf565b9050919050565b7f455243373231456e756d657261626c653a206f776e657220696e646578206f7560008201527f74206f6620626f756e6473000000000000000000000000000000000000000000602082015250565b600061296e602b83612132565b915061297982612912565b604082019050919050565b6000602082019050818103600083015261299d81612961565b9050919050565b60008190508160005260206000209050919050565b60006020601f8301049050919050565b600082821b905092915050565b600060088302612a067fffffffffffffffffffffffffffffffffffffffffffffffffffffffffffffffff826129c9565b612a1086836129c9565b95508019841693508086168417925050509392505050565b6000819050919050565b6000612a4d612a48612a43846121d9565b612a28565b6121d9565b9050919050565b6000819050919050565b612a6783612a32565b612a7b612a7382612a54565b8484546129d6565b825550505050565b600090565b612a90612a83565b612a9b818484612a5e565b505050565b5b81811015612abf57612ab4600082612a88565b600181019050612aa1565b5050565b601f821115612b0457612ad5816129a4565b612ade846129b9565b81016020851015612aed578190505b612b01612af9856129b9565b830182612aa0565b50505b505050565b600082821c905092915050565b6000612b2760001984600802612b09565b1980831691505092915050565b6000612b408383612b16565b9150826002028217905092915050565b612b5982612127565b67ffffffffffffffff811115612b7257612b7161238b565b5b612b7c825461272b565b612b87828285612ac3565b600060209050601f831160018114612bba5760008415612ba8578287015190505b612bb28582612b34565b865550612c1a565b601f198416612bc8866129a4565b60005b82811015612bf057848901518255600182019150602085019450602081019050612bcb565b86831015612c0d5784890151612c09601f891682612b16565b8355505b6001600288020188555050505b505050505050565b7f455243373231456e756d657261626c653a20676c6f62616c20696e646578206f60008201527f7574206f6620626f756e64730000000000000000000000000000000000000000602082015250565b6000612c7e602c83612132565b9150612c8982612c22565b604082019050919050565b60006020820190508181036000830152612cad81612c71565b9050919050565b7f4e487b7100000000000000000000000000000000000000000000000000000000600052603260045260246000fd5b7f4552433732313a20696e76616c696420746f6b656e2049440000000000000000600082015250565b6000612d19601883612132565b9150612d2482612ce3565b602082019050919050565b60006020820190508181036000830152612d4881612d0c565b9050919050565b7f4552433732313a2061646472657373207a65726f206973206e6f74206120766160008201527f6c6964206f776e65720000000000000000000000000000000000000000000000602082015250565b6000612dab602983612132565b9150612db682612d4f565b604082019050919050565b60006020820190508181036000830152612dda81612d9e565b9050919050565b6000604082019050612df6600083018561226e565b612e036020830184612304565b9392505050565b600081905092915050565b6000612e2082612127565b612e2a8185612e0a565b9350612e3a818560208601612143565b80840191505092915050565b6000612e528285612e15565b9150612e5e8284612e15565b91508190509392505050565b7f4552433732313a207472616e736665722066726f6d20696e636f72726563742060008201527f6f776e6572000000000000000000000000000000000000000000000000000000602082015250565b6000612ec6602583612132565b9150612ed182612e6a565b604082019050919050565b60006020820190508181036000830152612ef581612eb9565b9050919050565b7f4552433732313a207472616e7366657220746f20746865207a65726f2061646460008201527f7265737300000000000000000000000000000000000000000000000000000000602082015250565b6000612f58602483612132565b9150612f6382612efc565b604082019050919050565b60006020820190508181036000830152612f8781612f4b565b9050919050565b7f4552433732313a20617070726f766520746f2063616c6c657200000000000000600082015250565b6000612fc4601983612132565b9150612fcf82612f8e565b602082019050919050565b60006020820190508181036000830152612ff381612fb7565b9050919050565b7f4552433732313a207472616e7366657220746f206e6f6e20455243373231526560008201527f63656976657220696d706c656d656e7465720000000000000000000000000000602082015250565b6000613056603283612132565b915061306182612ffa565b604082019050919050565b6000602082019050818103600083015261308581613049565b9050919050565b7f4e487b7100000000000000000000000000000000000000000000000000000000600052601260045260246000fd5b600081519050919050565b600082825260208201905092915050565b60006130e2826130bb565b6130ec81856130c6565b93506130fc818560208601612143565b6131058161216d565b840191505092915050565b6000608082019050613125600083018761226e565b613132602083018661226e565b61313f6040830185612304565b818103606083015261315181846130d7565b905095945050505050565b60008151905061316b81612098565b92915050565b60006020828403121561318757613186612062565b5b60006131958482850161315c565b91505092915050565b7f455243373231456e756d657261626c653a20636f6e736563757469766520747260008201527f616e7366657273206e6f7420737570706f727465640000000000000000000000602082015250565b60006131fa603583612132565b91506132058261319e565b604082019050919050565b60006020820190508181036000830152613229816131ed565b9050919050565b7f4552433732313a206d696e7420746f20746865207a65726f2061646472657373600082015250565b6000613266602083612132565b915061327182613230565b602082019050919050565b6000602082019050818103600083015261329581613259565b9050919050565b7f4552433732313a20746f6b656e20616c7265616479206d696e74656400000000600082015250565b60006132d2601c83612132565b91506132dd8261329c565b602082019050919050565b60006020820190508181036000830152613301816132c5565b9050919050565b7f4e487b7100000000000000000000000000000000000000000000000000000000600052601160045260246000fd5b6000613342826121d9565b915061334d836121d9565b925082820390508181111561336557613364613308565b5b92915050565b7f4e487b7100000000000000000000000000000000000000000000000000000000600052603160045260246000fdfea26469706673582212208154db174bc5c39907b515bc2d9ee65214d660f4a615743e04845607a47cca2464736f6c63430008120033",
  "immutableReferences": {},
  "source": "// // SPDX-License-Identifier: GPL-3.0\n// pragma solidity >=0.4.16 <0.9.0;\n\n// import \"@openzeppelin/contracts/token/ERC721/ERC721.sol\";\n// import \"@openzeppelin/contracts/utils/Counters.sol\";\n\n// contract NFT is ERC721\n// {\n//     using Counters for Counters.Counter;\n//     Counters.Counter private currentTokenId;\n//     string public baseTokenURI;\n//     event mintevent(address addOfSender, uint256 id);\n    \n//     constructor() ERC721(\"NFTTutorial\", \"NFT\") {}\n    \n//     function mintTo(address recipient) public\n//     {\n//         currentTokenId.increment();\n//         uint256 newItemId = currentTokenId.current();\n//         _safeMint(recipient, newItemId);\n//         emit mintevent(msg.sender,newItemId);\n//     }\n\n//     function _baseURI() internal view virtual override returns (string memory) \n//     {\n//         return baseTokenURI;\n//     }\n\n//     function setBaseTokenURI(string memory _baseTokenURI) public \n//     {\n//         baseTokenURI = _baseTokenURI;\n//     }\n// }\n\n\npragma solidity ^0.8.9;\n\nimport \"@openzeppelin/contracts/token/ERC721/ERC721.sol\";\nimport \"@openzeppelin/contracts/utils/Counters.sol\";\nimport \"@openzeppelin/contracts/token/ERC721/extensions/ERC721Enumerable.sol\";\n\ncontract MyToken is ERC721, ERC721Enumerable {\n    constructor() ERC721(\"MyToken\", \"MTK\") {}\n\n\n    using Counters for Counters.Counter;\n    Counters.Counter private currentTokenId;\n    string public baseTokenURI;\n    event mintevent(address addOfSender, uint256 id);\n\n\n    function _beforeTokenTransfer(address from, address to, uint256 tokenId, uint256 batchSize) internal override(ERC721, ERC721Enumerable)\n    {\n        super._beforeTokenTransfer(from, to, tokenId, batchSize);\n    }\n\n    function supportsInterface(bytes4 interfaceId) public view override(ERC721, ERC721Enumerable) returns (bool)\n    {\n        return super.supportsInterface(interfaceId);\n    }\n\n    \n    function mintTo(address recipient) public returns (uint256)\n    {\n        currentTokenId.increment();\n        uint256 newItemId = currentTokenId.current();\n        _safeMint(recipient, newItemId);\n        emit mintevent(msg.sender,newItemId);\n    }\n\n    function _baseURI() internal view virtual override returns (string memory) \n    {\n        return baseTokenURI;\n    }\n\n    function get() public view returns(string memory) {\n        return _baseURI();\n    }\n\n\n    function setBaseTokenURI(string memory _baseTokenURI) public \n    {\n        baseTokenURI = _baseTokenURI;\n    }\n\n}",
  "sourcePath": "/home/hp/Documents/nency/demo-nft/contracts/NFT.sol",
  "compiler": {
    "name": "solc",
    "version": "0.8.18+commit.87f61d96.Emscripten.clang"
  },
  "schemaVersion": "3.4.11",
  "updatedAt": "2023-04-27T11:59:47.522Z",
  "devdoc": {
    "events": {
      "Approval(address,address,uint256)": {
        "details": "Emitted when `owner` enables `approved` to manage the `tokenId` token."
      },
      "ApprovalForAll(address,address,bool)": {
        "details": "Emitted when `owner` enables or disables (`approved`) `operator` to manage all of its assets."
      },
      "Transfer(address,address,uint256)": {
        "details": "Emitted when `tokenId` token is transferred from `from` to `to`."
      }
    },
    "kind": "dev",
    "methods": {
      "approve(address,uint256)": {
        "details": "See {IERC721-approve}."
      },
      "balanceOf(address)": {
        "details": "See {IERC721-balanceOf}."
      },
      "getApproved(uint256)": {
        "details": "See {IERC721-getApproved}."
      },
      "isApprovedForAll(address,address)": {
        "details": "See {IERC721-isApprovedForAll}."
      },
      "name()": {
        "details": "See {IERC721Metadata-name}."
      },
      "ownerOf(uint256)": {
        "details": "See {IERC721-ownerOf}."
      },
      "safeTransferFrom(address,address,uint256)": {
        "details": "See {IERC721-safeTransferFrom}."
      },
      "safeTransferFrom(address,address,uint256,bytes)": {
        "details": "See {IERC721-safeTransferFrom}."
      },
      "setApprovalForAll(address,bool)": {
        "details": "See {IERC721-setApprovalForAll}."
      },
      "symbol()": {
        "details": "See {IERC721Metadata-symbol}."
      },
      "tokenByIndex(uint256)": {
        "details": "See {IERC721Enumerable-tokenByIndex}."
      },
      "tokenOfOwnerByIndex(address,uint256)": {
        "details": "See {IERC721Enumerable-tokenOfOwnerByIndex}."
      },
      "tokenURI(uint256)": {
        "details": "See {IERC721Metadata-tokenURI}."
      },
      "totalSupply()": {
        "details": "See {IERC721Enumerable-totalSupply}."
      },
      "transferFrom(address,address,uint256)": {
        "details": "See {IERC721-transferFrom}."
      }
    },
    "version": 1
  },
  "userdoc": {
    "kind": "user",
    "methods": {},
    "version": 1
  }
}