{
  "contractName": "NFT",
  "abi": [
    {
      "inputs": [],
      "stateMutability": "nonpayable",
      "type": "constructor"
    },
    {
      "anonymous": false,
      "inputs": [
        {
          "indexed": true,
          "internalType": "address",
          "name": "owner",
          "type": "address"
        },
        {
          "indexed": true,
          "internalType": "address",
          "name": "approved",
          "type": "address"
        },
        {
          "indexed": true,
          "internalType": "uint256",
          "name": "tokenId",
          "type": "uint256"
        }
      ],
      "name": "Approval",
      "type": "event"
    },
    {
      "anonymous": false,
      "inputs": [
        {
          "indexed": true,
          "internalType": "address",
          "name": "owner",
          "type": "address"
        },
        {
          "indexed": true,
          "internalType": "address",
          "name": "operator",
          "type": "address"
        },
        {
          "indexed": false,
          "internalType": "bool",
          "name": "approved",
          "type": "bool"
        }
      ],
      "name": "ApprovalForAll",
      "type": "event"
    },
    {
      "anonymous": false,
      "inputs": [
        {
          "indexed": true,
          "internalType": "address",
          "name": "from",
          "type": "address"
        },
        {
          "indexed": true,
          "internalType": "address",
          "name": "to",
          "type": "address"
        },
        {
          "indexed": true,
          "internalType": "uint256",
          "name": "tokenId",
          "type": "uint256"
        }
      ],
      "name": "Transfer",
      "type": "event"
    },
    {
      "anonymous": false,
      "inputs": [
        {
          "indexed": false,
          "internalType": "address",
          "name": "addOfSender",
          "type": "address"
        },
        {
          "indexed": false,
          "internalType": "uint256",
          "name": "id",
          "type": "uint256"
        }
      ],
      "name": "mintevent",
      "type": "event"
    },
    {
      "inputs": [
        {
          "internalType": "address",
          "name": "to",
          "type": "address"
        },
        {
          "internalType": "uint256",
          "name": "tokenId",
          "type": "uint256"
        }
      ],
      "name": "approve",
      "outputs": [],
      "stateMutability": "nonpayable",
      "type": "function"
    },
    {
      "inputs": [
        {
          "internalType": "address",
          "name": "owner",
          "type": "address"
        }
      ],
      "name": "balanceOf",
      "outputs": [
        {
          "internalType": "uint256",
          "name": "",
          "type": "uint256"
        }
      ],
      "stateMutability": "view",
      "type": "function",
      "constant": true
    },
    {
      "inputs": [],
      "name": "baseTokenURI",
      "outputs": [
        {
          "internalType": "string",
          "name": "",
          "type": "string"
        }
      ],
      "stateMutability": "view",
      "type": "function",
      "constant": true
    },
    {
      "inputs": [
        {
          "internalType": "uint256",
          "name": "tokenId",
          "type": "uint256"
        }
      ],
      "name": "getApproved",
      "outputs": [
        {
          "internalType": "address",
          "name": "",
          "type": "address"
        }
      ],
      "stateMutability": "view",
      "type": "function",
      "constant": true
    },
    {
      "inputs": [
        {
          "internalType": "address",
          "name": "owner",
          "type": "address"
        },
        {
          "internalType": "address",
          "name": "operator",
          "type": "address"
        }
      ],
      "name": "isApprovedForAll",
      "outputs": [
        {
          "internalType": "bool",
          "name": "",
          "type": "bool"
        }
      ],
      "stateMutability": "view",
      "type": "function",
      "constant": true
    },
    {
      "inputs": [],
      "name": "name",
      "outputs": [
        {
          "internalType": "string",
          "name": "",
          "type": "string"
        }
      ],
      "stateMutability": "view",
      "type": "function",
      "constant": true
    },
    {
      "inputs": [
        {
          "internalType": "uint256",
          "name": "tokenId",
          "type": "uint256"
        }
      ],
      "name": "ownerOf",
      "outputs": [
        {
          "internalType": "address",
          "name": "",
          "type": "address"
        }
      ],
      "stateMutability": "view",
      "type": "function",
      "constant": true
    },
    {
      "inputs": [
        {
          "internalType": "address",
          "name": "from",
          "type": "address"
        },
        {
          "internalType": "address",
          "name": "to",
          "type": "address"
        },
        {
          "internalType": "uint256",
          "name": "tokenId",
          "type": "uint256"
        }
      ],
      "name": "safeTransferFrom",
      "outputs": [],
      "stateMutability": "nonpayable",
      "type": "function"
    },
    {
      "inputs": [
        {
          "internalType": "address",
          "name": "from",
          "type": "address"
        },
        {
          "internalType": "address",
          "name": "to",
          "type": "address"
        },
        {
          "internalType": "uint256",
          "name": "tokenId",
          "type": "uint256"
        },
        {
          "internalType": "bytes",
          "name": "data",
          "type": "bytes"
        }
      ],
      "name": "safeTransferFrom",
      "outputs": [],
      "stateMutability": "nonpayable",
      "type": "function"
    },
    {
      "inputs": [
        {
          "internalType": "address",
          "name": "operator",
          "type": "address"
        },
        {
          "internalType": "bool",
          "name": "approved",
          "type": "bool"
        }
      ],
      "name": "setApprovalForAll",
      "outputs": [],
      "stateMutability": "nonpayable",
      "type": "function"
    },
    {
      "inputs": [
        {
          "internalType": "bytes4",
          "name": "interfaceId",
          "type": "bytes4"
        }
      ],
      "name": "supportsInterface",
      "outputs": [
        {
          "internalType": "bool",
          "name": "",
          "type": "bool"
        }
      ],
      "stateMutability": "view",
      "type": "function",
      "constant": true
    },
    {
      "inputs": [],
      "name": "symbol",
      "outputs": [
        {
          "internalType": "string",
          "name": "",
          "type": "string"
        }
      ],
      "stateMutability": "view",
      "type": "function",
      "constant": true
    },
    {
      "inputs": [
        {
          "internalType": "uint256",
          "name": "tokenId",
          "type": "uint256"
        }
      ],
      "name": "tokenURI",
      "outputs": [
        {
          "internalType": "string",
          "name": "",
          "type": "string"
        }
      ],
      "stateMutability": "view",
      "type": "function",
      "constant": true
    },
    {
      "inputs": [
        {
          "internalType": "address",
          "name": "from",
          "type": "address"
        },
        {
          "internalType": "address",
          "name": "to",
          "type": "address"
        },
        {
          "internalType": "uint256",
          "name": "tokenId",
          "type": "uint256"
        }
      ],
      "name": "transferFrom",
      "outputs": [],
      "stateMutability": "nonpayable",
      "type": "function"
    },
    {
      "inputs": [
        {
          "internalType": "address",
          "name": "recipient",
          "type": "address"
        }
      ],
      "name": "mintTo",
      "outputs": [],
      "stateMutability": "nonpayable",
      "type": "function"
    },
    {
      "inputs": [
        {
          "internalType": "string",
          "name": "_baseTokenURI",
          "type": "string"
        }
      ],
      "name": "setBaseTokenURI",
      "outputs": [],
      "stateMutability": "nonpayable",
      "type": "function"
    }
  ],
  "bytecode": "0x60806040523480156200001157600080fd5b506040518060400160405280600b81526020017f4e46545475746f7269616c0000000000000000000000000000000000000000008152506040518060400160405280600381526020017f4e4654000000000000000000000000000000000000000000000000000000000081525081600090816200008f919062000324565b508060019081620000a1919062000324565b5050506200040b565b600081519050919050565b7f4e487b7100000000000000000000000000000000000000000000000000000000600052604160045260246000fd5b7f4e487b7100000000000000000000000000000000000000000000000000000000600052602260045260246000fd5b600060028204905060018216806200012c57607f821691505b602082108103620001425762000141620000e4565b5b50919050565b60008190508160005260206000209050919050565b60006020601f8301049050919050565b600082821b905092915050565b600060088302620001ac7fffffffffffffffffffffffffffffffffffffffffffffffffffffffffffffffff826200016d565b620001b886836200016d565b95508019841693508086168417925050509392505050565b6000819050919050565b6000819050919050565b600062000205620001ff620001f984620001d0565b620001da565b620001d0565b9050919050565b6000819050919050565b6200022183620001e4565b6200023962000230826200020c565b8484546200017a565b825550505050565b600090565b6200025062000241565b6200025d81848462000216565b505050565b5b8181101562000285576200027960008262000246565b60018101905062000263565b5050565b601f821115620002d4576200029e8162000148565b620002a9846200015d565b81016020851015620002b9578190505b620002d1620002c8856200015d565b83018262000262565b50505b505050565b600082821c905092915050565b6000620002f960001984600802620002d9565b1980831691505092915050565b6000620003148383620002e6565b9150826002028217905092915050565b6200032f82620000aa565b67ffffffffffffffff8111156200034b576200034a620000b5565b5b62000357825462000113565b6200036482828562000289565b600060209050601f8311600181146200039c576000841562000387578287015190505b62000393858262000306565b86555062000403565b601f198416620003ac8662000148565b60005b82811015620003d657848901518255600182019150602085019450602081019050620003af565b86831015620003f65784890151620003f2601f891682620002e6565b8355505b6001600288020188555050505b505050505050565b612a45806200041b6000396000f3fe608060405234801561001057600080fd5b50600436106101005760003560e01c806370a0823111610097578063b88d4fde11610066578063b88d4fde146102a9578063c87b56dd146102c5578063d547cfb7146102f5578063e985e9c51461031357610100565b806370a0823114610223578063755edd171461025357806395d89b411461026f578063a22cb4651461028d57610100565b806323b872dd116100d357806323b872dd1461019f57806330176e13146101bb57806342842e0e146101d75780636352211e146101f357610100565b806301ffc9a71461010557806306fdde0314610135578063081812fc14610153578063095ea7b314610183575b600080fd5b61011f600480360381019061011a91906119b0565b610343565b60405161012c91906119f8565b60405180910390f35b61013d610425565b60405161014a9190611aa3565b60405180910390f35b61016d60048036038101906101689190611afb565b6104b7565b60405161017a9190611b69565b60405180910390f35b61019d60048036038101906101989190611bb0565b6104fd565b005b6101b960048036038101906101b49190611bf0565b610614565b005b6101d560048036038101906101d09190611d78565b610674565b005b6101f160048036038101906101ec9190611bf0565b610687565b005b61020d60048036038101906102089190611afb565b6106a7565b60405161021a9190611b69565b60405180910390f35b61023d60048036038101906102389190611dc1565b61072d565b60405161024a9190611dfd565b60405180910390f35b61026d60048036038101906102689190611dc1565b6107e4565b005b610277610843565b6040516102849190611aa3565b60405180910390f35b6102a760048036038101906102a29190611e44565b6108d5565b005b6102c360048036038101906102be9190611f25565b6108eb565b005b6102df60048036038101906102da9190611afb565b61094d565b6040516102ec9190611aa3565b60405180910390f35b6102fd6109b5565b60405161030a9190611aa3565b60405180910390f35b61032d60048036038101906103289190611fa8565b610a43565b60405161033a91906119f8565b60405180910390f35b60007f80ac58cd000000000000000000000000000000000000000000000000000000007bffffffffffffffffffffffffffffffffffffffffffffffffffffffff1916827bffffffffffffffffffffffffffffffffffffffffffffffffffffffff1916148061040e57507f5b5e139f000000000000000000000000000000000000000000000000000000007bffffffffffffffffffffffffffffffffffffffffffffffffffffffff1916827bffffffffffffffffffffffffffffffffffffffffffffffffffffffff1916145b8061041e575061041d82610ad7565b5b9050919050565b60606000805461043490612017565b80601f016020809104026020016040519081016040528092919081815260200182805461046090612017565b80156104ad5780601f10610482576101008083540402835291602001916104ad565b820191906000526020600020905b81548152906001019060200180831161049057829003601f168201915b5050505050905090565b60006104c282610b41565b6004600083815260200190815260200160002060009054906101000a900473ffffffffffffffffffffffffffffffffffffffff169050919050565b6000610508826106a7565b90508073ffffffffffffffffffffffffffffffffffffffff168373ffffffffffffffffffffffffffffffffffffffff1603610578576040517f08c379a000000000000000000000000000000000000000000000000000000000815260040161056f906120ba565b60405180910390fd5b8073ffffffffffffffffffffffffffffffffffffffff16610597610b8c565b73ffffffffffffffffffffffffffffffffffffffff1614806105c657506105c5816105c0610b8c565b610a43565b5b610605576040517f08c379a00000000000000000000000000000000000000000000000000000000081526004016105fc9061214c565b60405180910390fd5b61060f8383610b94565b505050565b61062561061f610b8c565b82610c4d565b610664576040517f08c379a000000000000000000000000000000000000000000000000000000000815260040161065b906121de565b60405180910390fd5b61066f838383610ce2565b505050565b806007908161068391906123aa565b5050565b6106a2838383604051806020016040528060008152506108eb565b505050565b6000806106b383610fdb565b9050600073ffffffffffffffffffffffffffffffffffffffff168173ffffffffffffffffffffffffffffffffffffffff1603610724576040517f08c379a000000000000000000000000000000000000000000000000000000000815260040161071b906124c8565b60405180910390fd5b80915050919050565b60008073ffffffffffffffffffffffffffffffffffffffff168273ffffffffffffffffffffffffffffffffffffffff160361079d576040517f08c379a00000000000000000000000000000000000000000000000000000000081526004016107949061255a565b60405180910390fd5b600360008373ffffffffffffffffffffffffffffffffffffffff1673ffffffffffffffffffffffffffffffffffffffff168152602001908152602001600020549050919050565b6107ee6006611018565b60006107fa600661102e565b9050610806828261103c565b7ff26177e8beb5685e196f245a368b55447edb1db689c2ee31d11026345db15812338260405161083792919061257a565b60405180910390a15050565b60606001805461085290612017565b80601f016020809104026020016040519081016040528092919081815260200182805461087e90612017565b80156108cb5780601f106108a0576101008083540402835291602001916108cb565b820191906000526020600020905b8154815290600101906020018083116108ae57829003601f168201915b5050505050905090565b6108e76108e0610b8c565b838361105a565b5050565b6108fc6108f6610b8c565b83610c4d565b61093b576040517f08c379a0000000000000000000000000000000000000000000000000000000008152600401610932906121de565b60405180910390fd5b610947848484846111c6565b50505050565b606061095882610b41565b6000610962611222565b9050600081511161098257604051806020016040528060008152506109ad565b8061098c846112b4565b60405160200161099d9291906125df565b6040516020818303038152906040525b915050919050565b600780546109c290612017565b80601f01602080910402602001604051908101604052809291908181526020018280546109ee90612017565b8015610a3b5780601f10610a1057610100808354040283529160200191610a3b565b820191906000526020600020905b815481529060010190602001808311610a1e57829003601f168201915b505050505081565b6000600560008473ffffffffffffffffffffffffffffffffffffffff1673ffffffffffffffffffffffffffffffffffffffff16815260200190815260200160002060008373ffffffffffffffffffffffffffffffffffffffff1673ffffffffffffffffffffffffffffffffffffffff16815260200190815260200160002060009054906101000a900460ff16905092915050565b60007f01ffc9a7000000000000000000000000000000000000000000000000000000007bffffffffffffffffffffffffffffffffffffffffffffffffffffffff1916827bffffffffffffffffffffffffffffffffffffffffffffffffffffffff1916149050919050565b610b4a81611382565b610b89576040517f08c379a0000000000000000000000000000000000000000000000000000000008152600401610b80906124c8565b60405180910390fd5b50565b600033905090565b816004600083815260200190815260200160002060006101000a81548173ffffffffffffffffffffffffffffffffffffffff021916908373ffffffffffffffffffffffffffffffffffffffff160217905550808273ffffffffffffffffffffffffffffffffffffffff16610c07836106a7565b73ffffffffffffffffffffffffffffffffffffffff167f8c5be1e5ebec7d5bd14f71427d1e84f3dd0314c0f7b2291e5b200ac8c7c3b92560405160405180910390a45050565b600080610c59836106a7565b90508073ffffffffffffffffffffffffffffffffffffffff168473ffffffffffffffffffffffffffffffffffffffff161480610c9b5750610c9a8185610a43565b5b80610cd957508373ffffffffffffffffffffffffffffffffffffffff16610cc1846104b7565b73ffffffffffffffffffffffffffffffffffffffff16145b91505092915050565b8273ffffffffffffffffffffffffffffffffffffffff16610d02826106a7565b73ffffffffffffffffffffffffffffffffffffffff1614610d58576040517f08c379a0000000000000000000000000000000000000000000000000000000008152600401610d4f90612675565b60405180910390fd5b600073ffffffffffffffffffffffffffffffffffffffff168273ffffffffffffffffffffffffffffffffffffffff1603610dc7576040517f08c379a0000000000000000000000000000000000000000000000000000000008152600401610dbe90612707565b60405180910390fd5b610dd483838360016113c3565b8273ffffffffffffffffffffffffffffffffffffffff16610df4826106a7565b73ffffffffffffffffffffffffffffffffffffffff1614610e4a576040517f08c379a0000000000000000000000000000000000000000000000000000000008152600401610e4190612675565b60405180910390fd5b6004600082815260200190815260200160002060006101000a81549073ffffffffffffffffffffffffffffffffffffffff02191690556001600360008573ffffffffffffffffffffffffffffffffffffffff1673ffffffffffffffffffffffffffffffffffffffff168152602001908152602001600020600082825403925050819055506001600360008473ffffffffffffffffffffffffffffffffffffffff1673ffffffffffffffffffffffffffffffffffffffff16815260200190815260200160002060008282540192505081905550816002600083815260200190815260200160002060006101000a81548173ffffffffffffffffffffffffffffffffffffffff021916908373ffffffffffffffffffffffffffffffffffffffff160217905550808273ffffffffffffffffffffffffffffffffffffffff168473ffffffffffffffffffffffffffffffffffffffff167fddf252ad1be2c89b69c2b068fc378daa952ba7f163c4a11628f55a4df523b3ef60405160405180910390a4610fd683838360016113c9565b505050565b60006002600083815260200190815260200160002060009054906101000a900473ffffffffffffffffffffffffffffffffffffffff169050919050565b6001816000016000828254019250508190555050565b600081600001549050919050565b6110568282604051806020016040528060008152506113cf565b5050565b8173ffffffffffffffffffffffffffffffffffffffff168373ffffffffffffffffffffffffffffffffffffffff16036110c8576040517f08c379a00000000000000000000000000000000000000000000000000000000081526004016110bf90612773565b60405180910390fd5b80600560008573ffffffffffffffffffffffffffffffffffffffff1673ffffffffffffffffffffffffffffffffffffffff16815260200190815260200160002060008473ffffffffffffffffffffffffffffffffffffffff1673ffffffffffffffffffffffffffffffffffffffff16815260200190815260200160002060006101000a81548160ff0219169083151502179055508173ffffffffffffffffffffffffffffffffffffffff168373ffffffffffffffffffffffffffffffffffffffff167f17307eab39ab6107e8899845ad3d59bd9653f200f220920489ca2b5937696c31836040516111b991906119f8565b60405180910390a3505050565b6111d1848484610ce2565b6111dd8484848461142a565b61121c576040517f08c379a000000000000000000000000000000000000000000000000000000000815260040161121390612805565b60405180910390fd5b50505050565b60606007805461123190612017565b80601f016020809104026020016040519081016040528092919081815260200182805461125d90612017565b80156112aa5780601f1061127f576101008083540402835291602001916112aa565b820191906000526020600020905b81548152906001019060200180831161128d57829003601f168201915b5050505050905090565b6060600060016112c3846115b1565b01905060008167ffffffffffffffff8111156112e2576112e1611c4d565b5b6040519080825280601f01601f1916602001820160405280156113145781602001600182028036833780820191505090505b509050600082602001820190505b600115611377578080600190039150507f3031323334353637383961626364656600000000000000000000000000000000600a86061a8153600a858161136b5761136a612825565b5b04945060008503611322575b819350505050919050565b60008073ffffffffffffffffffffffffffffffffffffffff166113a483610fdb565b73ffffffffffffffffffffffffffffffffffffffff1614159050919050565b50505050565b50505050565b6113d98383611704565b6113e6600084848461142a565b611425576040517f08c379a000000000000000000000000000000000000000000000000000000000815260040161141c90612805565b60405180910390fd5b505050565b600061144b8473ffffffffffffffffffffffffffffffffffffffff16611921565b156115a4578373ffffffffffffffffffffffffffffffffffffffff1663150b7a02611474610b8c565b8786866040518563ffffffff1660e01b815260040161149694939291906128a9565b6020604051808303816000875af19250505080156114d257506040513d601f19601f820116820180604052508101906114cf919061290a565b60015b611554573d8060008114611502576040519150601f19603f3d011682016040523d82523d6000602084013e611507565b606091505b50600081510361154c576040517f08c379a000000000000000000000000000000000000000000000000000000000815260040161154390612805565b60405180910390fd5b805181602001fd5b63150b7a0260e01b7bffffffffffffffffffffffffffffffffffffffffffffffffffffffff1916817bffffffffffffffffffffffffffffffffffffffffffffffffffffffff1916149150506115a9565b600190505b949350505050565b600080600090507a184f03e93ff9f4daa797ed6e38ed64bf6a1f010000000000000000831061160f577a184f03e93ff9f4daa797ed6e38ed64bf6a1f010000000000000000838161160557611604612825565b5b0492506040810190505b6d04ee2d6d415b85acef8100000000831061164c576d04ee2d6d415b85acef8100000000838161164257611641612825565b5b0492506020810190505b662386f26fc10000831061167b57662386f26fc10000838161167157611670612825565b5b0492506010810190505b6305f5e10083106116a4576305f5e100838161169a57611699612825565b5b0492506008810190505b61271083106116c95761271083816116bf576116be612825565b5b0492506004810190505b606483106116ec57606483816116e2576116e1612825565b5b0492506002810190505b600a83106116fb576001810190505b80915050919050565b600073ffffffffffffffffffffffffffffffffffffffff168273ffffffffffffffffffffffffffffffffffffffff1603611773576040517f08c379a000000000000000000000000000000000000000000000000000000000815260040161176a90612983565b60405180910390fd5b61177c81611382565b156117bc576040517f08c379a00000000000000000000000000000000000000000000000000000000081526004016117b3906129ef565b60405180910390fd5b6117ca6000838360016113c3565b6117d381611382565b15611813576040517f08c379a000000000000000000000000000000000000000000000000000000000815260040161180a906129ef565b60405180910390fd5b6001600360008473ffffffffffffffffffffffffffffffffffffffff1673ffffffffffffffffffffffffffffffffffffffff16815260200190815260200160002060008282540192505081905550816002600083815260200190815260200160002060006101000a81548173ffffffffffffffffffffffffffffffffffffffff021916908373ffffffffffffffffffffffffffffffffffffffff160217905550808273ffffffffffffffffffffffffffffffffffffffff16600073ffffffffffffffffffffffffffffffffffffffff167fddf252ad1be2c89b69c2b068fc378daa952ba7f163c4a11628f55a4df523b3ef60405160405180910390a461191d6000838360016113c9565b5050565b6000808273ffffffffffffffffffffffffffffffffffffffff163b119050919050565b6000604051905090565b600080fd5b600080fd5b60007fffffffff0000000000000000000000000000000000000000000000000000000082169050919050565b61198d81611958565b811461199857600080fd5b50565b6000813590506119aa81611984565b92915050565b6000602082840312156119c6576119c561194e565b5b60006119d48482850161199b565b91505092915050565b60008115159050919050565b6119f2816119dd565b82525050565b6000602082019050611a0d60008301846119e9565b92915050565b600081519050919050565b600082825260208201905092915050565b60005b83811015611a4d578082015181840152602081019050611a32565b60008484015250505050565b6000601f19601f8301169050919050565b6000611a7582611a13565b611a7f8185611a1e565b9350611a8f818560208601611a2f565b611a9881611a59565b840191505092915050565b60006020820190508181036000830152611abd8184611a6a565b905092915050565b6000819050919050565b611ad881611ac5565b8114611ae357600080fd5b50565b600081359050611af581611acf565b92915050565b600060208284031215611b1157611b1061194e565b5b6000611b1f84828501611ae6565b91505092915050565b600073ffffffffffffffffffffffffffffffffffffffff82169050919050565b6000611b5382611b28565b9050919050565b611b6381611b48565b82525050565b6000602082019050611b7e6000830184611b5a565b92915050565b611b8d81611b48565b8114611b9857600080fd5b50565b600081359050611baa81611b84565b92915050565b60008060408385031215611bc757611bc661194e565b5b6000611bd585828601611b9b565b9250506020611be685828601611ae6565b9150509250929050565b600080600060608486031215611c0957611c0861194e565b5b6000611c1786828701611b9b565b9350506020611c2886828701611b9b565b9250506040611c3986828701611ae6565b9150509250925092565b600080fd5b600080fd5b7f4e487b7100000000000000000000000000000000000000000000000000000000600052604160045260246000fd5b611c8582611a59565b810181811067ffffffffffffffff82111715611ca457611ca3611c4d565b5b80604052505050565b6000611cb7611944565b9050611cc38282611c7c565b919050565b600067ffffffffffffffff821115611ce357611ce2611c4d565b5b611cec82611a59565b9050602081019050919050565b82818337600083830152505050565b6000611d1b611d1684611cc8565b611cad565b905082815260208101848484011115611d3757611d36611c48565b5b611d42848285611cf9565b509392505050565b600082601f830112611d5f57611d5e611c43565b5b8135611d6f848260208601611d08565b91505092915050565b600060208284031215611d8e57611d8d61194e565b5b600082013567ffffffffffffffff811115611dac57611dab611953565b5b611db884828501611d4a565b91505092915050565b600060208284031215611dd757611dd661194e565b5b6000611de584828501611b9b565b91505092915050565b611df781611ac5565b82525050565b6000602082019050611e126000830184611dee565b92915050565b611e21816119dd565b8114611e2c57600080fd5b50565b600081359050611e3e81611e18565b92915050565b60008060408385031215611e5b57611e5a61194e565b5b6000611e6985828601611b9b565b9250506020611e7a85828601611e2f565b9150509250929050565b600067ffffffffffffffff821115611e9f57611e9e611c4d565b5b611ea882611a59565b9050602081019050919050565b6000611ec8611ec384611e84565b611cad565b905082815260208101848484011115611ee457611ee3611c48565b5b611eef848285611cf9565b509392505050565b600082601f830112611f0c57611f0b611c43565b5b8135611f1c848260208601611eb5565b91505092915050565b60008060008060808587031215611f3f57611f3e61194e565b5b6000611f4d87828801611b9b565b9450506020611f5e87828801611b9b565b9350506040611f6f87828801611ae6565b925050606085013567ffffffffffffffff811115611f9057611f8f611953565b5b611f9c87828801611ef7565b91505092959194509250565b60008060408385031215611fbf57611fbe61194e565b5b6000611fcd85828601611b9b565b9250506020611fde85828601611b9b565b9150509250929050565b7f4e487b7100000000000000000000000000000000000000000000000000000000600052602260045260246000fd5b6000600282049050600182168061202f57607f821691505b60208210810361204257612041611fe8565b5b50919050565b7f4552433732313a20617070726f76616c20746f2063757272656e74206f776e6560008201527f7200000000000000000000000000000000000000000000000000000000000000602082015250565b60006120a4602183611a1e565b91506120af82612048565b604082019050919050565b600060208201905081810360008301526120d381612097565b9050919050565b7f4552433732313a20617070726f76652063616c6c6572206973206e6f7420746f60008201527f6b656e206f776e6572206f7220617070726f76656420666f7220616c6c000000602082015250565b6000612136603d83611a1e565b9150612141826120da565b604082019050919050565b6000602082019050818103600083015261216581612129565b9050919050565b7f4552433732313a2063616c6c6572206973206e6f7420746f6b656e206f776e6560008201527f72206f7220617070726f76656400000000000000000000000000000000000000602082015250565b60006121c8602d83611a1e565b91506121d38261216c565b604082019050919050565b600060208201905081810360008301526121f7816121bb565b9050919050565b60008190508160005260206000209050919050565b60006020601f8301049050919050565b600082821b905092915050565b6000600883026122607fffffffffffffffffffffffffffffffffffffffffffffffffffffffffffffffff82612223565b61226a8683612223565b95508019841693508086168417925050509392505050565b6000819050919050565b60006122a76122a261229d84611ac5565b612282565b611ac5565b9050919050565b6000819050919050565b6122c18361228c565b6122d56122cd826122ae565b848454612230565b825550505050565b600090565b6122ea6122dd565b6122f58184846122b8565b505050565b5b818110156123195761230e6000826122e2565b6001810190506122fb565b5050565b601f82111561235e5761232f816121fe565b61233884612213565b81016020851015612347578190505b61235b61235385612213565b8301826122fa565b50505b505050565b600082821c905092915050565b600061238160001984600802612363565b1980831691505092915050565b600061239a8383612370565b9150826002028217905092915050565b6123b382611a13565b67ffffffffffffffff8111156123cc576123cb611c4d565b5b6123d68254612017565b6123e182828561231d565b600060209050601f8311600181146124145760008415612402578287015190505b61240c858261238e565b865550612474565b601f198416612422866121fe565b60005b8281101561244a57848901518255600182019150602085019450602081019050612425565b868310156124675784890151612463601f891682612370565b8355505b6001600288020188555050505b505050505050565b7f4552433732313a20696e76616c696420746f6b656e2049440000000000000000600082015250565b60006124b2601883611a1e565b91506124bd8261247c565b602082019050919050565b600060208201905081810360008301526124e1816124a5565b9050919050565b7f4552433732313a2061646472657373207a65726f206973206e6f74206120766160008201527f6c6964206f776e65720000000000000000000000000000000000000000000000602082015250565b6000612544602983611a1e565b915061254f826124e8565b604082019050919050565b6000602082019050818103600083015261257381612537565b9050919050565b600060408201905061258f6000830185611b5a565b61259c6020830184611dee565b9392505050565b600081905092915050565b60006125b982611a13565b6125c381856125a3565b93506125d3818560208601611a2f565b80840191505092915050565b60006125eb82856125ae565b91506125f782846125ae565b91508190509392505050565b7f4552433732313a207472616e736665722066726f6d20696e636f72726563742060008201527f6f776e6572000000000000000000000000000000000000000000000000000000602082015250565b600061265f602583611a1e565b915061266a82612603565b604082019050919050565b6000602082019050818103600083015261268e81612652565b9050919050565b7f4552433732313a207472616e7366657220746f20746865207a65726f2061646460008201527f7265737300000000000000000000000000000000000000000000000000000000602082015250565b60006126f1602483611a1e565b91506126fc82612695565b604082019050919050565b60006020820190508181036000830152612720816126e4565b9050919050565b7f4552433732313a20617070726f766520746f2063616c6c657200000000000000600082015250565b600061275d601983611a1e565b915061276882612727565b602082019050919050565b6000602082019050818103600083015261278c81612750565b9050919050565b7f4552433732313a207472616e7366657220746f206e6f6e20455243373231526560008201527f63656976657220696d706c656d656e7465720000000000000000000000000000602082015250565b60006127ef603283611a1e565b91506127fa82612793565b604082019050919050565b6000602082019050818103600083015261281e816127e2565b9050919050565b7f4e487b7100000000000000000000000000000000000000000000000000000000600052601260045260246000fd5b600081519050919050565b600082825260208201905092915050565b600061287b82612854565b612885818561285f565b9350612895818560208601611a2f565b61289e81611a59565b840191505092915050565b60006080820190506128be6000830187611b5a565b6128cb6020830186611b5a565b6128d86040830185611dee565b81810360608301526128ea8184612870565b905095945050505050565b60008151905061290481611984565b92915050565b6000602082840312156129205761291f61194e565b5b600061292e848285016128f5565b91505092915050565b7f4552433732313a206d696e7420746f20746865207a65726f2061646472657373600082015250565b600061296d602083611a1e565b915061297882612937565b602082019050919050565b6000602082019050818103600083015261299c81612960565b9050919050565b7f4552433732313a20746f6b656e20616c7265616479206d696e74656400000000600082015250565b60006129d9601c83611a1e565b91506129e4826129a3565b602082019050919050565b60006020820190508181036000830152612a08816129cc565b905091905056fea2646970667358221220dea788bb4e8af93ec20cce47ef2a7f28cf65a058756581190722fbe7f216151d64736f6c63430008120033",
  "immutableReferences": {},
  "source": "// SPDX-License-Identifier: GPL-3.0\npragma solidity >=0.4.16 <0.9.0;\n\nimport \"@openzeppelin/contracts/token/ERC721/ERC721.sol\";\nimport \"@openzeppelin/contracts/utils/Counters.sol\";\n\ncontract NFT is ERC721\n{\n    using Counters for Counters.Counter;\n    Counters.Counter private currentTokenId;\n    string public baseTokenURI;\n    event mintevent(address addOfSender, uint256 id);\n    \n    constructor() ERC721(\"NFTTutorial\", \"NFT\") {}\n    \n    function mintTo(address recipient) public\n    {\n        currentTokenId.increment();\n        uint256 newItemId = currentTokenId.current();\n        _safeMint(recipient, newItemId);\n        emit mintevent(msg.sender,newItemId);\n    }\n\n    function _baseURI() internal view virtual override returns (string memory) \n    {\n        return baseTokenURI;\n    }\n\n    function setBaseTokenURI(string memory _baseTokenURI) public \n    {\n        baseTokenURI = _baseTokenURI;\n    }\n}",
  "sourcePath": "/home/hp/Documents/nency/demo-nft/contracts/NFT.sol",
  "compiler": {
    "name": "solc",
    "version": "0.8.18+commit.87f61d96.Emscripten.clang"
  },
  "schemaVersion": "3.4.11",
  "updatedAt": "2023-04-25T10:04:26.084Z",
  "networkType": "ethereum",
  "devdoc": {
    "events": {
      "Approval(address,address,uint256)": {
        "details": "Emitted when `owner` enables `approved` to manage the `tokenId` token."
      },
      "ApprovalForAll(address,address,bool)": {
        "details": "Emitted when `owner` enables or disables (`approved`) `operator` to manage all of its assets."
      },
      "Transfer(address,address,uint256)": {
        "details": "Emitted when `tokenId` token is transferred from `from` to `to`."
      }
    },
    "kind": "dev",
    "methods": {
      "approve(address,uint256)": {
        "details": "See {IERC721-approve}."
      },
      "balanceOf(address)": {
        "details": "See {IERC721-balanceOf}."
      },
      "getApproved(uint256)": {
        "details": "See {IERC721-getApproved}."
      },
      "isApprovedForAll(address,address)": {
        "details": "See {IERC721-isApprovedForAll}."
      },
      "name()": {
        "details": "See {IERC721Metadata-name}."
      },
      "ownerOf(uint256)": {
        "details": "See {IERC721-ownerOf}."
      },
      "safeTransferFrom(address,address,uint256)": {
        "details": "See {IERC721-safeTransferFrom}."
      },
      "safeTransferFrom(address,address,uint256,bytes)": {
        "details": "See {IERC721-safeTransferFrom}."
      },
      "setApprovalForAll(address,bool)": {
        "details": "See {IERC721-setApprovalForAll}."
      },
      "supportsInterface(bytes4)": {
        "details": "See {IERC165-supportsInterface}."
      },
      "symbol()": {
        "details": "See {IERC721Metadata-symbol}."
      },
      "tokenURI(uint256)": {
        "details": "See {IERC721Metadata-tokenURI}."
      },
      "transferFrom(address,address,uint256)": {
        "details": "See {IERC721-transferFrom}."
      }
    },
    "version": 1
  },
  "userdoc": {
    "kind": "user",
    "methods": {},
    "version": 1
  }
}